{
  "abi": [
    {
      "inputs": [
        {
          "internalType": "address",
          "name": "_cketh_minter_main_address",
          "type": "address"
        }
      ],
      "stateMutability": "nonpayable",
      "type": "constructor"
    },
    {
      "inputs": [
        {
          "internalType": "address",
          "name": "target",
          "type": "address"
        }
      ],
      "name": "AddressEmptyCode",
      "type": "error"
    },
    {
      "inputs": [
        {
          "internalType": "address",
          "name": "account",
          "type": "address"
        }
      ],
      "name": "AddressInsufficientBalance",
      "type": "error"
    },
    {
      "inputs": [],
      "name": "FailedInnerCall",
      "type": "error"
    },
    {
      "inputs": [
        {
          "internalType": "address",
          "name": "token",
          "type": "address"
        }
      ],
      "name": "SafeERC20FailedOperation",
      "type": "error"
    },
    {
      "anonymous": false,
      "inputs": [
        {
          "indexed": true,
          "internalType": "address",
          "name": "erc20_contract_address",
          "type": "address"
        },
        {
          "indexed": true,
          "internalType": "address",
          "name": "owner",
          "type": "address"
        },
        {
          "indexed": false,
          "internalType": "uint256",
          "name": "amount",
          "type": "uint256"
        },
        {
          "indexed": true,
          "internalType": "bytes32",
          "name": "principal",
          "type": "bytes32"
        }
      ],
      "name": "ReceivedErc20",
      "type": "event"
    },
    {
      "anonymous": false,
      "inputs": [
        {
          "indexed": true,
          "internalType": "address",
          "name": "from",
          "type": "address"
        },
        {
          "indexed": false,
          "internalType": "uint256",
          "name": "value",
          "type": "uint256"
        },
        {
          "indexed": true,
          "internalType": "bytes32",
          "name": "principal",
          "type": "bytes32"
        }
      ],
      "name": "ReceivedEth",
      "type": "event"
    },
    {
      "anonymous": false,
      "inputs": [
        {
          "indexed": true,
          "internalType": "address",
          "name": "nft_contract_address",
          "type": "address"
        },
        {
          "indexed": true,
          "internalType": "address",
          "name": "owner",
          "type": "address"
        },
        {
          "indexed": false,
          "internalType": "uint256",
          "name": "tokenId",
          "type": "uint256"
        },
        {
          "indexed": true,
          "internalType": "bytes32",
          "name": "principal",
          "type": "bytes32"
        }
      ],
      "name": "ReceivedNft",
      "type": "event"
    },
    {
      "inputs": [
        {
          "internalType": "address",
          "name": "erc20_address",
          "type": "address"
        },
        {
          "internalType": "uint256",
          "name": "amount",
          "type": "uint256"
        },
        {
          "internalType": "bytes32",
          "name": "principal",
          "type": "bytes32"
        }
      ],
      "name": "depositErc20",
      "outputs": [],
      "stateMutability": "nonpayable",
      "type": "function"
    },
    {
      "inputs": [
        {
          "internalType": "bytes32",
          "name": "_principal",
          "type": "bytes32"
        }
      ],
      "name": "depositEth",
      "outputs": [],
      "stateMutability": "payable",
      "type": "function"
    },
    {
      "inputs": [
        {
          "internalType": "address",
          "name": "nft_address",
          "type": "address"
        },
        {
          "internalType": "uint256",
          "name": "tokenId",
          "type": "uint256"
        },
        {
          "internalType": "bytes32",
          "name": "principal",
          "type": "bytes32"
        }
      ],
      "name": "depositNft",
      "outputs": [],
      "stateMutability": "nonpayable",
      "type": "function"
    },
    {
      "inputs": [],
      "name": "getMinterAddress",
      "outputs": [
        {
          "internalType": "address",
          "name": "",
          "type": "address"
        }
      ],
      "stateMutability": "view",
      "type": "function"
    },
    {
      "inputs": [
        {
          "internalType": "address",
          "name": "",
          "type": "address"
        },
        {
          "internalType": "address",
          "name": "",
          "type": "address"
        },
        {
          "internalType": "uint256",
          "name": "",
          "type": "uint256"
        },
        {
          "internalType": "bytes",
          "name": "",
          "type": "bytes"
        }
      ],
      "name": "onERC721Received",
      "outputs": [
        {
          "internalType": "bytes4",
          "name": "",
          "type": "bytes4"
        }
      ],
      "stateMutability": "nonpayable",
      "type": "function"
    }
  ],
  "bytecode": {
    "object": "0x60a060405234801561001057600080fd5b5060405161098738038061098783398101604081905261002f91610040565b6001600160a01b0316608052610070565b60006020828403121561005257600080fd5b81516001600160a01b038116811461006957600080fd5b9392505050565b6080516108e76100a060003960008181610122015281816101c2015281816102bc015261039201526108e76000f3fe60806040526004361061005a5760003560e01c806393e5d42a1161004357806393e5d42a146100fb578063c39654391461014c578063da63d7b61461016c57600080fd5b8063150b7a021461005f578063732a2834146100d9575b600080fd5b34801561006b57600080fd5b506100a361007a36600461071a565b7f150b7a0200000000000000000000000000000000000000000000000000000000949350505050565b6040517fffffffff0000000000000000000000000000000000000000000000000000000090911681526020015b60405180910390f35b3480156100e557600080fd5b506100f96100f4366004610814565b61017f565b005b34801561010757600080fd5b5060405173ffffffffffffffffffffffffffffffffffffffff7f00000000000000000000000000000000000000000000000000000000000000001681526020016100d0565b34801561015857600080fd5b506100f9610167366004610814565b61029e565b6100f961017a366004610847565b610341565b6040517f42842e0e00000000000000000000000000000000000000000000000000000000815233600482015273ffffffffffffffffffffffffffffffffffffffff7f000000000000000000000000000000000000000000000000000000000000000081166024830152604482018490528491908216906342842e0e90606401600060405180830381600087803b15801561021857600080fd5b505af115801561022c573d6000803e3d6000fd5b50505050813373ffffffffffffffffffffffffffffffffffffffff168573ffffffffffffffffffffffffffffffffffffffff167f7ec9c9ceeb92e53b410dc16fa2db372ccc9b0c61a562dd623287ca3c455836e58660405161029091815260200190565b60405180910390a450505050565b826102e173ffffffffffffffffffffffffffffffffffffffff8216337f0000000000000000000000000000000000000000000000000000000000000000866103de565b813373ffffffffffffffffffffffffffffffffffffffff168573ffffffffffffffffffffffffffffffffffffffff167f4d69d0bd4287b7f66c548f90154dc81bc98f65a1b362775df5ae171a2ccd262b8660405161029091815260200190565b604051348152819033907f257e057bb61920d8d0ed2cb7b720ac7f9c513cd1110bc9fa543079154f45f4359060200160405180910390a360405173ffffffffffffffffffffffffffffffffffffffff7f000000000000000000000000000000000000000000000000000000000000000016903480156108fc02916000818181858888f193505050501580156103da573d6000803e3d6000fd5b5050565b6040805173ffffffffffffffffffffffffffffffffffffffff85811660248301528416604482015260648082018490528251808303909101815260849091019091526020810180517bffffffffffffffffffffffffffffffffffffffffffffffffffffffff167f23b872dd00000000000000000000000000000000000000000000000000000000179052610473908590610479565b50505050565b600061049b73ffffffffffffffffffffffffffffffffffffffff841683610519565b905080516000141580156104c05750808060200190518101906104be9190610860565b155b15610514576040517f5274afe700000000000000000000000000000000000000000000000000000000815273ffffffffffffffffffffffffffffffffffffffff841660048201526024015b60405180910390fd5b505050565b60606105278383600061052e565b9392505050565b60608147101561056c576040517fcd78605900000000000000000000000000000000000000000000000000000000815230600482015260240161050b565b6000808573ffffffffffffffffffffffffffffffffffffffff1684866040516105959190610882565b60006040518083038185875af1925050503d80600081146105d2576040519150601f19603f3d011682016040523d82523d6000602084013e6105d7565b606091505b50915091506105e78683836105f1565b9695505050505050565b6060826106065761060182610680565b610527565b815115801561062a575073ffffffffffffffffffffffffffffffffffffffff84163b155b15610679576040517f9996b31500000000000000000000000000000000000000000000000000000000815273ffffffffffffffffffffffffffffffffffffffff8516600482015260240161050b565b5080610527565b8051156106905780518082602001fd5b6040517f1425ea4200000000000000000000000000000000000000000000000000000000815260040160405180910390fd5b803573ffffffffffffffffffffffffffffffffffffffff811681146106e657600080fd5b919050565b7f4e487b7100000000000000000000000000000000000000000000000000000000600052604160045260246000fd5b6000806000806080858703121561073057600080fd5b610739856106c2565b9350610747602086016106c2565b925060408501359150606085013567ffffffffffffffff8082111561076b57600080fd5b818701915087601f83011261077f57600080fd5b813581811115610791576107916106eb565b604051601f82017fffffffffffffffffffffffffffffffffffffffffffffffffffffffffffffffe0908116603f011681019083821181831017156107d7576107d76106eb565b816040528281528a60208487010111156107f057600080fd5b82602086016020830137600060208483010152809550505050505092959194509250565b60008060006060848603121561082957600080fd5b610832846106c2565b95602085013595506040909401359392505050565b60006020828403121561085957600080fd5b5035919050565b60006020828403121561087257600080fd5b8151801515811461052757600080fd5b6000825160005b818110156108a35760208186018101518583015201610889565b50600092019182525091905056fea2646970667358221220330128b98fa4b66523a2e967ee90c2cd8a0b441fe8c8f53a90e1f224ead7963264736f6c63430008140033",
    "linkReferences": {}
  },
  "methodIdentifiers": {
    "depositErc20(address,uint256,bytes32)": "c3965439",
    "depositEth(bytes32)": "da63d7b6",
    "depositNft(address,uint256,bytes32)": "732a2834",
    "getMinterAddress()": "93e5d42a",
    "onERC721Received(address,address,uint256,bytes)": "150b7a02"
  },
  "id": 0
}