{
  "abi": [
    {
      "inputs": [
        {
          "internalType": "address",
          "name": "_cketh_minter_main_address",
          "type": "address"
        }
      ],
      "stateMutability": "nonpayable",
      "type": "constructor"
    },
    {
      "inputs": [
        {
          "internalType": "address",
          "name": "target",
          "type": "address"
        }
      ],
      "name": "AddressEmptyCode",
      "type": "error"
    },
    {
      "inputs": [
        {
          "internalType": "address",
          "name": "account",
          "type": "address"
        }
      ],
      "name": "AddressInsufficientBalance",
      "type": "error"
    },
    {
      "inputs": [],
      "name": "FailedInnerCall",
      "type": "error"
    },
    {
      "inputs": [
        {
          "internalType": "address",
          "name": "token",
          "type": "address"
        }
      ],
      "name": "SafeERC20FailedOperation",
      "type": "error"
    },
    {
      "anonymous": false,
      "inputs": [
        {
          "indexed": true,
          "internalType": "address",
          "name": "erc20_contract_address",
          "type": "address"
        },
        {
          "indexed": true,
          "internalType": "address",
          "name": "owner",
          "type": "address"
        },
        {
          "indexed": false,
          "internalType": "uint256",
          "name": "amount",
          "type": "uint256"
        },
        {
          "indexed": true,
          "internalType": "bytes32",
          "name": "principal",
          "type": "bytes32"
        }
      ],
      "name": "ReceivedErc20",
      "type": "event"
    },
    {
      "anonymous": false,
      "inputs": [
        {
          "indexed": true,
          "internalType": "address",
          "name": "from",
          "type": "address"
        },
        {
          "indexed": false,
          "internalType": "uint256",
          "name": "value",
          "type": "uint256"
        },
        {
          "indexed": true,
          "internalType": "bytes32",
          "name": "principal",
          "type": "bytes32"
        }
      ],
      "name": "ReceivedEth",
      "type": "event"
    },
    {
      "anonymous": false,
      "inputs": [
        {
          "indexed": true,
          "internalType": "address",
          "name": "nft_contract_address",
          "type": "address"
        },
        {
          "indexed": true,
          "internalType": "address",
          "name": "owner",
          "type": "address"
        },
        {
          "indexed": false,
          "internalType": "uint256",
          "name": "tokenId",
          "type": "uint256"
        },
        {
          "indexed": true,
          "internalType": "bytes32",
          "name": "principal",
          "type": "bytes32"
        }
      ],
      "name": "ReceivedNft",
      "type": "event"
    },
    {
      "inputs": [
        {
          "internalType": "address",
          "name": "erc20_address",
          "type": "address"
        },
        {
          "internalType": "uint256",
          "name": "amount",
          "type": "uint256"
        },
        {
          "internalType": "bytes32",
          "name": "principal",
          "type": "bytes32"
        }
      ],
      "name": "depositErc20",
      "outputs": [],
      "stateMutability": "nonpayable",
      "type": "function"
    },
    {
      "inputs": [
        {
          "internalType": "bytes32",
          "name": "_principal",
          "type": "bytes32"
        }
      ],
      "name": "depositEth",
      "outputs": [],
      "stateMutability": "payable",
      "type": "function"
    },
    {
      "inputs": [
        {
          "internalType": "address",
          "name": "nft_address",
          "type": "address"
        },
        {
          "internalType": "uint256",
          "name": "tokenId",
          "type": "uint256"
        },
        {
          "internalType": "bytes32",
          "name": "principal",
          "type": "bytes32"
        }
      ],
      "name": "depositNft",
      "outputs": [],
      "stateMutability": "nonpayable",
      "type": "function"
    },
    {
      "inputs": [],
      "name": "getMinterAddress",
      "outputs": [
        {
          "internalType": "address",
          "name": "",
          "type": "address"
        }
      ],
      "stateMutability": "view",
      "type": "function"
    }
  ],
  "bytecode": {
    "object": "0x60a060405234801561001057600080fd5b506040516107c03803806107c083398101604081905261002f91610040565b6001600160a01b0316608052610070565b60006020828403121561005257600080fd5b81516001600160a01b038116811461006957600080fd5b9392505050565b60805161072161009f600039600081816075015281816101330152818161022d015261030301526107216000f3fe60806040526004361061003f5760003560e01c8063732a28341461004457806393e5d42a14610066578063c3965439146100bd578063da63d7b6146100dd575b600080fd5b34801561005057600080fd5b5061006461005f366004610633565b6100f0565b005b34801561007257600080fd5b507f000000000000000000000000000000000000000000000000000000000000000060405173ffffffffffffffffffffffffffffffffffffffff909116815260200160405180910390f35b3480156100c957600080fd5b506100646100d8366004610633565b61020f565b6100646100eb366004610681565b6102b2565b6040517f23b872dd00000000000000000000000000000000000000000000000000000000815233600482015273ffffffffffffffffffffffffffffffffffffffff7f000000000000000000000000000000000000000000000000000000000000000081166024830152604482018490528491908216906323b872dd90606401600060405180830381600087803b15801561018957600080fd5b505af115801561019d573d6000803e3d6000fd5b50505050813373ffffffffffffffffffffffffffffffffffffffff168573ffffffffffffffffffffffffffffffffffffffff167f7ec9c9ceeb92e53b410dc16fa2db372ccc9b0c61a562dd623287ca3c455836e58660405161020191815260200190565b60405180910390a450505050565b8261025273ffffffffffffffffffffffffffffffffffffffff8216337f00000000000000000000000000000000000000000000000000000000000000008661034f565b813373ffffffffffffffffffffffffffffffffffffffff168573ffffffffffffffffffffffffffffffffffffffff167f4d69d0bd4287b7f66c548f90154dc81bc98f65a1b362775df5ae171a2ccd262b8660405161020191815260200190565b604051348152819033907f257e057bb61920d8d0ed2cb7b720ac7f9c513cd1110bc9fa543079154f45f4359060200160405180910390a360405173ffffffffffffffffffffffffffffffffffffffff7f000000000000000000000000000000000000000000000000000000000000000016903480156108fc02916000818181858888f1935050505015801561034b573d6000803e3d6000fd5b5050565b6040805173ffffffffffffffffffffffffffffffffffffffff85811660248301528416604482015260648082018490528251808303909101815260849091019091526020810180517bffffffffffffffffffffffffffffffffffffffffffffffffffffffff167f23b872dd000000000000000000000000000000000000000000000000000000001790526103e49085906103ea565b50505050565b600061040c73ffffffffffffffffffffffffffffffffffffffff84168361048a565b9050805160001415801561043157508080602001905181019061042f919061069a565b155b15610485576040517f5274afe700000000000000000000000000000000000000000000000000000000815273ffffffffffffffffffffffffffffffffffffffff841660048201526024015b60405180910390fd5b505050565b60606104988383600061049f565b9392505050565b6060814710156104dd576040517fcd78605900000000000000000000000000000000000000000000000000000000815230600482015260240161047c565b6000808573ffffffffffffffffffffffffffffffffffffffff16848660405161050691906106bc565b60006040518083038185875af1925050503d8060008114610543576040519150601f19603f3d011682016040523d82523d6000602084013e610548565b606091505b5091509150610558868383610562565b9695505050505050565b60608261057757610572826105f1565b610498565b815115801561059b575073ffffffffffffffffffffffffffffffffffffffff84163b155b156105ea576040517f9996b31500000000000000000000000000000000000000000000000000000000815273ffffffffffffffffffffffffffffffffffffffff8516600482015260240161047c565b5080610498565b8051156106015780518082602001fd5b6040517f1425ea4200000000000000000000000000000000000000000000000000000000815260040160405180910390fd5b60008060006060848603121561064857600080fd5b833573ffffffffffffffffffffffffffffffffffffffff8116811461066c57600080fd5b95602085013595506040909401359392505050565b60006020828403121561069357600080fd5b5035919050565b6000602082840312156106ac57600080fd5b8151801515811461049857600080fd5b6000825160005b818110156106dd57602081860181015185830152016106c3565b50600092019182525091905056fea26469706673582212204c27effc0087969bb895f2cb8e3bbe297966635468e813d5e9a2966653567b4b64736f6c63430008140033",
    "linkReferences": {}
  },
  "methodIdentifiers": {
    "depositErc20(address,uint256,bytes32)": "c3965439",
    "depositEth(bytes32)": "da63d7b6",
    "depositNft(address,uint256,bytes32)": "732a2834",
    "getMinterAddress()": "93e5d42a"
  },
  "id": 0
}